{
    "contractName": "GrantERC20",
    "abi": [
        {
            "inputs": [
                {
                    "internalType": "string",
                    "name": "name",
                    "type": "string"
                },
                {
                    "internalType": "string",
                    "name": "symbol",
                    "type": "string"
                }
            ],
            "stateMutability": "nonpayable",
            "type": "constructor"
        },
        {
            "anonymous": false,
            "inputs": [
                {
                    "indexed": true,
                    "internalType": "address",
                    "name": "owner",
                    "type": "address"
                },
                {
                    "indexed": true,
                    "internalType": "address",
                    "name": "spender",
                    "type": "address"
                },
                {
                    "indexed": false,
                    "internalType": "uint256",
                    "name": "value",
                    "type": "uint256"
                }
            ],
            "name": "Approval",
            "type": "event"
        },
        {
            "anonymous": false,
            "inputs": [
                {
                    "indexed": false,
                    "internalType": "address",
                    "name": "funder",
                    "type": "address"
                },
                {
                    "indexed": false,
                    "internalType": "address",
                    "name": "recipient",
                    "type": "address"
                },
                {
                    "indexed": false,
                    "internalType": "uint256",
                    "name": "amount",
                    "type": "uint256"
                },
                {
                    "indexed": false,
                    "internalType": "uint256",
                    "name": "claim_timestamp",
                    "type": "uint256"
                },
                {
                    "indexed": false,
                    "internalType": "uint256",
                    "name": "currentID",
                    "type": "uint256"
                }
            ],
            "name": "GrantClaimed",
            "type": "event"
        },
        {
            "anonymous": false,
            "inputs": [
                {
                    "indexed": false,
                    "internalType": "address",
                    "name": "funder",
                    "type": "address"
                },
                {
                    "indexed": false,
                    "internalType": "address",
                    "name": "recipient",
                    "type": "address"
                },
                {
                    "indexed": false,
                    "internalType": "uint256",
                    "name": "amount",
                    "type": "uint256"
                },
                {
                    "indexed": false,
                    "internalType": "uint256",
                    "name": "unlockTime",
                    "type": "uint256"
                },
                {
                    "indexed": false,
                    "internalType": "uint256",
                    "name": "currentID",
                    "type": "uint256"
                }
            ],
            "name": "GrantCreated",
            "type": "event"
        },
        {
            "anonymous": false,
            "inputs": [
                {
                    "indexed": false,
                    "internalType": "address",
                    "name": "funder",
                    "type": "address"
                },
                {
                    "indexed": false,
                    "internalType": "uint256",
                    "name": "amount",
                    "type": "uint256"
                },
                {
                    "indexed": false,
                    "internalType": "uint256",
                    "name": "id",
                    "type": "uint256"
                }
            ],
            "name": "GrantRemoved",
            "type": "event"
        },
        {
            "anonymous": false,
            "inputs": [
                {
                    "indexed": true,
                    "internalType": "address",
                    "name": "from",
                    "type": "address"
                },
                {
                    "indexed": true,
                    "internalType": "address",
                    "name": "to",
                    "type": "address"
                },
                {
                    "indexed": false,
                    "internalType": "uint256",
                    "name": "value",
                    "type": "uint256"
                }
            ],
            "name": "Transfer",
            "type": "event"
        },
        {
            "inputs": [
                {
                    "internalType": "address",
                    "name": "",
                    "type": "address"
                },
                {
                    "internalType": "address",
                    "name": "",
                    "type": "address"
                }
            ],
            "name": "allowance",
            "outputs": [
                {
                    "internalType": "uint256",
                    "name": "",
                    "type": "uint256"
                }
            ],
            "stateMutability": "view",
            "type": "function"
        },
        {
            "inputs": [
                {
                    "internalType": "address",
                    "name": "account",
                    "type": "address"
                },
                {
                    "internalType": "uint256",
                    "name": "amount",
                    "type": "uint256"
                }
            ],
            "name": "approve",
            "outputs": [
                {
                    "internalType": "bool",
                    "name": "",
                    "type": "bool"
                }
            ],
            "stateMutability": "nonpayable",
            "type": "function"
        },
        {
            "inputs": [
                {
                    "internalType": "uint256",
                    "name": "",
                    "type": "uint256"
                }
            ],
            "name": "balance",
            "outputs": [
                {
                    "internalType": "uint256",
                    "name": "",
                    "type": "uint256"
                }
            ],
            "stateMutability": "view",
            "type": "function"
        },
        {
            "inputs": [
                {
                    "internalType": "address",
                    "name": "",
                    "type": "address"
                }
            ],
            "name": "balanceOf",
            "outputs": [
                {
                    "internalType": "uint256",
                    "name": "",
                    "type": "uint256"
                }
            ],
            "stateMutability": "view",
            "type": "function"
        },
        {
            "inputs": [
                {
                    "internalType": "address",
                    "name": "account",
                    "type": "address"
                },
                {
                    "internalType": "uint256",
                    "name": "amount",
                    "type": "uint256"
                }
            ],
            "name": "burn",
            "outputs": [],
            "stateMutability": "nonpayable",
            "type": "function"
        },
        {
            "inputs": [
                {
                    "internalType": "uint256",
                    "name": "id",
                    "type": "uint256"
                },
                {
                    "internalType": "uint256",
                    "name": "amount",
                    "type": "uint256"
                }
            ],
            "name": "claimGrant",
            "outputs": [],
            "stateMutability": "nonpayable",
            "type": "function"
        },
        {
            "inputs": [
                {
                    "internalType": "address",
                    "name": "recipient",
                    "type": "address"
                },
                {
                    "internalType": "uint256",
                    "name": "amount",
                    "type": "uint256"
                },
                {
                    "internalType": "uint256",
                    "name": "lockPeriod",
                    "type": "uint256"
                }
            ],
            "name": "createGrant",
            "outputs": [],
            "stateMutability": "nonpayable",
            "type": "function"
        },
        {
            "inputs": [],
            "name": "decimals",
            "outputs": [
                {
                    "internalType": "uint8",
                    "name": "",
                    "type": "uint8"
                }
            ],
            "stateMutability": "view",
            "type": "function"
        },
        {
            "inputs": [
                {
                    "internalType": "uint256",
                    "name": "",
                    "type": "uint256"
                }
            ],
            "name": "funders",
            "outputs": [
                {
                    "internalType": "address",
                    "name": "funder",
                    "type": "address"
                },
                {
                    "internalType": "address",
                    "name": "recipient",
                    "type": "address"
                },
                {
                    "internalType": "uint256",
                    "name": "amount",
                    "type": "uint256"
                },
                {
                    "internalType": "uint256",
                    "name": "unlockTime",
                    "type": "uint256"
                }
            ],
            "stateMutability": "view",
            "type": "function"
        },
        {
            "inputs": [
                {
                    "internalType": "address",
                    "name": "account",
                    "type": "address"
                },
                {
                    "internalType": "uint256",
                    "name": "amount",
                    "type": "uint256"
                }
            ],
            "name": "mint",
            "outputs": [],
            "stateMutability": "nonpayable",
            "type": "function"
        },
        {
            "inputs": [],
            "name": "name",
            "outputs": [
                {
                    "internalType": "string",
                    "name": "",
                    "type": "string"
                }
            ],
            "stateMutability": "view",
            "type": "function"
        },
        {
            "inputs": [
                {
                    "internalType": "uint256",
                    "name": "id",
                    "type": "uint256"
                }
            ],
            "name": "removeGrant",
            "outputs": [],
            "stateMutability": "nonpayable",
            "type": "function"
        },
        {
            "inputs": [
                {
                    "internalType": "uint8",
                    "name": "decimals_",
                    "type": "uint8"
                }
            ],
            "name": "setupDecimals",
            "outputs": [],
            "stateMutability": "nonpayable",
            "type": "function"
        },
        {
            "inputs": [],
            "name": "symbol",
            "outputs": [
                {
                    "internalType": "string",
                    "name": "",
                    "type": "string"
                }
            ],
            "stateMutability": "view",
            "type": "function"
        },
        {
            "inputs": [],
            "name": "totalSupply",
            "outputs": [
                {
                    "internalType": "uint256",
                    "name": "",
                    "type": "uint256"
                }
            ],
            "stateMutability": "view",
            "type": "function"
        },
        {
            "inputs": [
                {
                    "internalType": "address",
                    "name": "recipient",
                    "type": "address"
                },
                {
                    "internalType": "uint256",
                    "name": "amount",
                    "type": "uint256"
                }
            ],
            "name": "transfer",
            "outputs": [
                {
                    "internalType": "bool",
                    "name": "",
                    "type": "bool"
                }
            ],
            "stateMutability": "nonpayable",
            "type": "function"
        },
        {
            "inputs": [
                {
                    "internalType": "address",
                    "name": "spender",
                    "type": "address"
                },
                {
                    "internalType": "address",
                    "name": "recipient",
                    "type": "address"
                },
                {
                    "internalType": "uint256",
                    "name": "amount",
                    "type": "uint256"
                }
            ],
            "name": "transferFrom",
            "outputs": [
                {
                    "internalType": "bool",
                    "name": "",
                    "type": "bool"
                }
            ],
            "stateMutability": "nonpayable",
            "type": "function"
        }
    ],
    "bytecode": "60806040523480156200001157600080fd5b50604051620013443803806200134483398101604081905262000034916200015e565b8181600062000044838262000257565b50600162000053828262000257565b50506002805460ff191660121790555050600080525060046020526000197f17ef568e3e12ab5b9c7254a8d58478811de00f9e6eb34345acd53bf8fd09d3ec5562000323565b634e487b7160e01b600052604160045260246000fd5b600082601f830112620000c157600080fd5b81516001600160401b0380821115620000de57620000de62000099565b604051601f8301601f19908116603f0116810190828211818310171562000109576200010962000099565b816040528381526020925086838588010111156200012657600080fd5b600091505b838210156200014a57858201830151818301840152908201906200012b565b600093810190920192909252949350505050565b600080604083850312156200017257600080fd5b82516001600160401b03808211156200018a57600080fd5b6200019886838701620000af565b93506020850151915080821115620001af57600080fd5b50620001be85828601620000af565b9150509250929050565b600181811c90821680620001dd57607f821691505b602082108103620001fe57634e487b7160e01b600052602260045260246000fd5b50919050565b601f8211156200025257600081815260208120601f850160051c810160208610156200022d5750805b601f850160051c820191505b818110156200024e5782815560010162000239565b5050505b505050565b81516001600160401b0381111562000273576200027362000099565b6200028b81620002848454620001c8565b8462000204565b602080601f831160018114620002c35760008415620002aa5750858301515b600019600386901b1c1916600185901b1785556200024e565b600085815260208120601f198616915b82811015620002f457888601518255948401946001909101908401620002d3565b5085821015620003135787850151600019600388901b60f8161c191681555b5050505050600190811b01905550565b61101180620003336000396000f3fe608060405234801561001057600080fd5b506004361061010b5760003560e01c806395d89b41116100a2578063cef3007711610071578063cef3007714610230578063dc0d3dff14610243578063dd62ed3e146102b0578063dde26ec9146102db578063fe947ffe146102ee57600080fd5b806395d89b41146101ef5780639dc29fac146101f7578063a6ceae801461020a578063a9059cbb1461021d57600080fd5b8063313ce567116100de578063313ce5671461017b57806340c10f191461019a57806347bb89f0146101af57806370a08231146101cf57600080fd5b806306fdde0314610110578063095ea7b31461012e57806318160ddd1461015157806323b872dd14610168575b600080fd5b61011861030e565b6040516101259190610d7b565b60405180910390f35b61014161013c366004610de5565b61039c565b6040519015158152602001610125565b61015a60035481565b604051908152602001610125565b610141610176366004610e0f565b610409565b6002546101889060ff1681565b60405160ff9091168152602001610125565b6101ad6101a8366004610de5565b6105d6565b005b61015a6101bd366004610e4b565b60076020526000908152604090205481565b61015a6101dd366004610e64565b60046020526000908152604090205481565b6101186105e4565b6101ad610205366004610de5565b6105f1565b6101ad610218366004610e7f565b6105fb565b61014161022b366004610de5565b6108bf565b6101ad61023e366004610e4b565b6108d3565b610285610251366004610e4b565b60066020526000908152604090208054600182015460028301546003909301546001600160a01b0392831693919092169184565b604080516001600160a01b039586168152949093166020850152918301526060820152608001610125565b61015a6102be366004610ea1565b600560209081526000928352604080842090915290825290205481565b6101ad6102e9366004610ed4565b610add565b6101ad6102fc366004610f07565b6002805460ff191660ff831617905550565b6000805461031b90610f2a565b80601f016020809104026020016040519081016040528092919081815260200182805461034790610f2a565b80156103945780601f1061036957610100808354040283529160200191610394565b820191906000526020600020905b81548152906001019060200180831161037757829003601f168201915b505050505081565b3360008181526005602090815260408083206001600160a01b038716808552925280832085905551919290917f8c5be1e5ebec7d5bd14f71427d1e84f3dd0314c0f7b2291e5b200ac8c7c3b925906103f79086815260200190565b60405180910390a35060015b92915050565b6001600160a01b038316600090815260046020526040812054828110156104775760405162461bcd60e51b815260206004820152601b60248201527f45524332303a20696e73756666696369656e742d62616c616e6365000000000060448201526064015b60405180910390fd5b6001600160a01b0385163314610535576001600160a01b0385166000908152600560209081526040808320338452909152902054600019811461053357838110156105045760405162461bcd60e51b815260206004820152601d60248201527f45524332303a20696e73756666696369656e742d616c6c6f77616e6365000000604482015260640161046e565b61050e8482610f7a565b6001600160a01b03871660009081526005602090815260408083203384529091529020555b505b61053f8382610f7a565b6001600160a01b03808716600090815260046020526040808220939093559086168152205461056f908490610f8d565b6001600160a01b0380861660008181526004602052604090819020939093559151908716907fddf252ad1be2c89b69c2b068fc378daa952ba7f163c4a11628f55a4df523b3ef906105c39087815260200190565b60405180910390a3506001949350505050565b6105e08282610c49565b5050565b6001805461031b90610f2a565b6105e08282610ce6565b6000828152600660205260409020600101546001600160a01b031633146106645760405162461bcd60e51b815260206004820152601960248201527f636c61696d4772616e743a206e6f2d7065726d697373696f6e00000000000000604482015260640161046e565b60008281526006602052604090206003015442116106b95760405162461bcd60e51b815260206004820152601260248201527118db185a5b51dc985b9d0e881b1bd8dad95960721b604482015260640161046e565b60008281526007602052604081205490036107165760405162461bcd60e51b815260206004820152601760248201527f636c61696d4772616e743a20616c6c2d636c61696d6564000000000000000000604482015260640161046e565b600081116107665760405162461bcd60e51b815260206004820152601760248201527f636c61696d4772616e743a207a65726f2d616d6f756e74000000000000000000604482015260640161046e565b6000828152600760205260409020548111156107c45760405162461bcd60e51b815260206004820181905260248201527f636c61696d4772616e743a20696e73756666696369656e742d62616c616e6365604482015260640161046e565b600082815260076020526040812080548392906107e2908490610f7a565b909155505060405163a9059cbb60e01b815233600482015260248101829052309063a9059cbb906044016020604051808303816000875af115801561082b573d6000803e3d6000fd5b505050506040513d601f19601f8201168201806040525081019061084f9190610fa0565b506000828152600660209081526040918290205482516001600160a01b0390911681523391810191909152908101829052426060820152608081018390527f015ac24784f0fafa109bb46b6bee5d8d95a2e16c320bf6263e74e368d92e73659060a0015b60405180910390a15050565b60006108cc338484610409565b9392505050565b6000818152600660205260409020546001600160a01b031661092e5760405162461bcd60e51b81526020600482015260146024820152731c995b5bdd9951dc985b9d0e881c995b5bdd995960621b604482015260640161046e565b6000818152600660205260409020546001600160a01b031633146109945760405162461bcd60e51b815260206004820152601a60248201527f72656d6f76654772616e743a206e6f2d7065726d697373696f6e000000000000604482015260640161046e565b6000818152600660205260409020600301544211156109ed5760405162461bcd60e51b81526020600482015260156024820152741c995b5bdd9951dc985b9d0e881d5b9b1bd8dad959605a1b604482015260640161046e565b600081815260066020908152604080832060028101805482546001600160a01b031990811684556001840180549091169055908590556003909101849055600790925280832092909255905163a9059cbb60e01b815233600482015260248101829052309063a9059cbb906044016020604051808303816000875af1158015610a7a573d6000803e3d6000fd5b505050506040513d601f19601f82011682018060405250810190610a9e9190610fa0565b5060408051338152602081018390529081018390527f8f1462bc75233ee60d368eb1925fc2a7f205e6a8ef562c9bdf9c06db8b41aa76906060016108b3565b60008211610b2d5760405162461bcd60e51b815260206004820152601860248201527f6372656174654772616e743a207a65726f2d616d6f756e740000000000000000604482015260640161046e565b60085460005b600854811015610b6f576000818152600660205260409020546001600160a01b0316610b5d578091505b80610b6781610fc2565b915050610b33565b5060008181526006602052604090208054336001600160a01b03199182161782556001820180549091166001600160a01b03871617905560028101849055610bb78342610f8d565b600382015560008281526007602052604081208590556008805491610bdb83610fc2565b9190505550610bea30856108bf565b50604080513381526001600160a01b038716602082015290810185905260608101849052608081018390527f457a71784c401c8b696add5f23143a8501ff8825c51bc8fa793a5f90496c962e9060a00160405180910390a15050505050565b6001600160a01b038216600090815260046020526040902054610c6d908290610f8d565b6001600160a01b03831660009081526004602052604081209190915560038054839290610c9b908490610f8d565b90915550506040518181526001600160a01b038316906000907fddf252ad1be2c89b69c2b068fc378daa952ba7f163c4a11628f55a4df523b3ef906020015b60405180910390a35050565b6001600160a01b038216600090815260046020526040902054610d0a908290610f7a565b6001600160a01b03831660009081526004602052604081209190915560038054839290610d38908490610f7a565b90915550506040518181526000906001600160a01b038416907fddf252ad1be2c89b69c2b068fc378daa952ba7f163c4a11628f55a4df523b3ef90602001610cda565b600060208083528351808285015260005b81811015610da857858101830151858201604001528201610d8c565b506000604082860101526040601f19601f8301168501019250505092915050565b80356001600160a01b0381168114610de057600080fd5b919050565b60008060408385031215610df857600080fd5b610e0183610dc9565b946020939093013593505050565b600080600060608486031215610e2457600080fd5b610e2d84610dc9565b9250610e3b60208501610dc9565b9150604084013590509250925092565b600060208284031215610e5d57600080fd5b5035919050565b600060208284031215610e7657600080fd5b6108cc82610dc9565b60008060408385031215610e9257600080fd5b50508035926020909101359150565b60008060408385031215610eb457600080fd5b610ebd83610dc9565b9150610ecb60208401610dc9565b90509250929050565b600080600060608486031215610ee957600080fd5b610ef284610dc9565b95602085013595506040909401359392505050565b600060208284031215610f1957600080fd5b813560ff811681146108cc57600080fd5b600181811c90821680610f3e57607f821691505b602082108103610f5e57634e487b7160e01b600052602260045260246000fd5b50919050565b634e487b7160e01b600052601160045260246000fd5b8181038181111561040357610403610f64565b8082018082111561040357610403610f64565b600060208284031215610fb257600080fd5b815180151581146108cc57600080fd5b600060018201610fd457610fd4610f64565b506001019056fea2646970667358221220c1ef77fc46493429be9339b3f74e39950404a9e04bab3d8cb41847579848ac6664736f6c63430008130033",
    "sourcePath": "d:/Dev/Hardhat/contracts/GrantERC20.sol",
    "compiler": {
        "name": "solc",
        "version": "0.8.19+commit.7dd6d404"
    },
    "functionHashes": {
        "allowance(address,address)": "dd62ed3e",
        "approve(address,uint256)": "095ea7b3",
        "balance(uint256)": "47bb89f0",
        "balanceOf(address)": "70a08231",
        "burn(address,uint256)": "9dc29fac",
        "claimGrant(uint256,uint256)": "a6ceae80",
        "createGrant(address,uint256,uint256)": "dde26ec9",
        "decimals()": "313ce567",
        "funders(uint256)": "dc0d3dff",
        "mint(address,uint256)": "40c10f19",
        "name()": "06fdde03",
        "removeGrant(uint256)": "cef30077",
        "setupDecimals(uint8)": "fe947ffe",
        "symbol()": "95d89b41",
        "totalSupply()": "18160ddd",
        "transfer(address,uint256)": "a9059cbb",
        "transferFrom(address,address,uint256)": "23b872dd"
    },
    "gasEstimates": {
        "creation": {
            "codeDepositCost": "822600",
            "executionCost": "infinite",
            "totalCost": "infinite"
        },
        "external": {
            "allowance(address,address)": "infinite",
            "approve(address,uint256)": "24546",
            "balance(uint256)": "2505",
            "balanceOf(address)": "2608",
            "burn(address,uint256)": "infinite",
            "claimGrant(uint256,uint256)": "infinite",
            "createGrant(address,uint256,uint256)": "infinite",
            "decimals()": "2336",
            "funders(uint256)": "8938",
            "mint(address,uint256)": "infinite",
            "name()": "infinite",
            "removeGrant(uint256)": "infinite",
            "setupDecimals(uint8)": "24585",
            "symbol()": "infinite",
            "totalSupply()": "2363",
            "transfer(address,uint256)": "infinite",
            "transferFrom(address,address,uint256)": "infinite"
        }
    }
}